{
  "contractName": "ChainOfCustody",
  "abi": [
    {
      "constant": false,
      "inputs": [
        {
          "internalType": "bytes32",
          "name": "ID",
          "type": "bytes32"
        },
        {
          "internalType": "string",
          "name": "description",
          "type": "string"
        },
        {
          "internalType": "string",
          "name": "row",
          "type": "string"
        }
      ],
      "name": "CreateEvidence",
      "outputs": [],
      "payable": false,
      "stateMutability": "nonpayable",
      "type": "function"
    },
    {
      "constant": false,
      "inputs": [
        {
          "internalType": "bytes32",
          "name": "ID",
          "type": "bytes32"
        },
        {
          "internalType": "address",
          "name": "newowner",
          "type": "address"
        }
      ],
      "name": "Transfer",
      "outputs": [],
      "payable": false,
      "stateMutability": "nonpayable",
      "type": "function"
    },
    {
      "constant": false,
      "inputs": [
        {
          "internalType": "bytes32",
          "name": "ID",
          "type": "bytes32"
        }
      ],
      "name": "RemoveEvidence",
      "outputs": [],
      "payable": false,
      "stateMutability": "nonpayable",
      "type": "function"
    },
    {
      "constant": true,
      "inputs": [
        {
          "internalType": "bytes32",
          "name": "ID",
          "type": "bytes32"
        }
      ],
      "name": "GetEvidence",
      "outputs": [
        {
          "internalType": "bytes32",
          "name": "",
          "type": "bytes32"
        },
        {
          "internalType": "address",
          "name": "",
          "type": "address"
        },
        {
          "internalType": "address",
          "name": "",
          "type": "address"
        },
        {
          "internalType": "string",
          "name": "",
          "type": "string"
        },
        {
          "internalType": "address[]",
          "name": "",
          "type": "address[]"
        },
        {
          "internalType": "uint256[]",
          "name": "",
          "type": "uint256[]"
        },
        {
          "internalType": "string",
          "name": "",
          "type": "string"
        }
      ],
      "payable": false,
      "stateMutability": "view",
      "type": "function"
    }
  ],
  "bytecode": "0x608060405234801561001057600080fd5b50610e19806100206000396000f3fe608060405234801561001057600080fd5b506004361061004c5760003560e01c80631c393366146100515780634ffb01ce146101ad57806384e77095146101db578063d4735d92146103eb575b600080fd5b6101ab6004803603606081101561006757600080fd5b81019080803590602001909291908035906020019064010000000081111561008e57600080fd5b8201836020820111156100a057600080fd5b803590602001918460018302840111640100000000831117156100c257600080fd5b91908080601f016020809104026020016040519081016040528093929190818152602001838380828437600081840152601f19601f8201169050808301925050505050505091929192908035906020019064010000000081111561012557600080fd5b82018360208201111561013757600080fd5b8035906020019184600183028401116401000000008311171561015957600080fd5b91908080601f016020809104026020016040519081016040528093929190818152602001838380828437600081840152601f19601f820116905080830192505050505050509192919290505050610439565b005b6101d9600480360360208110156101c357600080fd5b8101908080359060200190929190505050610661565b005b610207600480360360208110156101f157600080fd5b81019080803590602001909291905050506107d4565b604051808881526020018773ffffffffffffffffffffffffffffffffffffffff1673ffffffffffffffffffffffffffffffffffffffff1681526020018673ffffffffffffffffffffffffffffffffffffffff1673ffffffffffffffffffffffffffffffffffffffff16815260200180602001806020018060200180602001858103855289818151815260200191508051906020019080838360005b838110156102bd5780820151818401526020810190506102a2565b50505050905090810190601f1680156102ea5780820380516001836020036101000a031916815260200191505b50858103845288818151815260200191508051906020019060200280838360005b8381101561032657808201518184015260208101905061030b565b50505050905001858103835287818151815260200191508051906020019060200280838360005b8381101561036857808201518184015260208101905061034d565b50505050905001858103825286818151815260200191508051906020019080838360005b838110156103a757808201518184015260208101905061038c565b50505050905090810190601f1680156103d45780820380516001836020036101000a031916815260200191505b509b50505050505050505050505060405180910390f35b6104376004803603604081101561040157600080fd5b8101908080359060200190929190803573ffffffffffffffffffffffffffffffffffffffff169060200190929190505050610ae0565b005b826000806000801b6000808581526020019081526020016000206000015414159050811561047f576000801b83141580156104715750805b61047a57600080fd5b61048b565b801561048a57600080fd5b5b85600080888152602001908152602001600020600001819055503360008088815260200190815260200160002060010160006101000a81548173ffffffffffffffffffffffffffffffffffffffff021916908373ffffffffffffffffffffffffffffffffffffffff1602179055503360008088815260200190815260200160002060020160006101000a81548173ffffffffffffffffffffffffffffffffffffffff021916908373ffffffffffffffffffffffffffffffffffffffff160217905550846000808881526020019081526020016000206003019080519060200190610576929190610cb5565b506000808781526020019081526020016000206004013390806001815401808255809150509060018203906000526020600020016000909192909190916101000a81548173ffffffffffffffffffffffffffffffffffffffff021916908373ffffffffffffffffffffffffffffffffffffffff16021790555050600080878152602001908152602001600020600501429080600181540180825580915050906001820390600052602060002001600090919290919091505550836000808881526020019081526020016000206006019080519060200190610658929190610cb5565b50505050505050565b8060008082815260200190815260200160002060020160009054906101000a900473ffffffffffffffffffffffffffffffffffffffff1673ffffffffffffffffffffffffffffffffffffffff163373ffffffffffffffffffffffffffffffffffffffff16146106cf57600080fd5b81600160008060001b60008085815260200190815260200160002060000154141590508115610716576000801b83141580156107085750805b61071157600080fd5b610722565b801561072157600080fd5b5b6000808681526020019081526020016000206000808201600090556001820160006101000a81549073ffffffffffffffffffffffffffffffffffffffff02191690556002820160006101000a81549073ffffffffffffffffffffffffffffffffffffffff021916905560038201600061079b9190610d35565b6004820160006107ab9190610d7d565b6005820160006107bb9190610d9e565b6006820160006107cb9190610d35565b50505050505050565b6000806000606080606080600080898152602001908152602001600020600001546000808a815260200190815260200160002060010160009054906101000a900473ffffffffffffffffffffffffffffffffffffffff166000808b815260200190815260200160002060020160009054906101000a900473ffffffffffffffffffffffffffffffffffffffff166000808c81526020019081526020016000206003016000808d81526020019081526020016000206004016000808e81526020019081526020016000206005016000808f8152602001908152602001600020600601838054600181600116156101000203166002900480601f01602080910402602001604051908101604052809291908181526020018280546001816001161561010002031660029004801561094a5780601f1061091f5761010080835404028352916020019161094a565b820191906000526020600020905b81548152906001019060200180831161092d57829003601f168201915b50505050509350828054806020026020016040519081016040528092919081815260200182805480156109d257602002820191906000526020600020905b8160009054906101000a900473ffffffffffffffffffffffffffffffffffffffff1673ffffffffffffffffffffffffffffffffffffffff1681526020019060010190808311610988575b5050505050925081805480602002602001604051908101604052809291908181526020018280548015610a2457602002820191906000526020600020905b815481526020019060010190808311610a10575b50505050509150808054600181600116156101000203166002900480601f016020809104026020016040519081016040528092919081815260200182805460018160011615610100020316600290048015610ac05780601f10610a9557610100808354040283529160200191610ac0565b820191906000526020600020905b815481529060010190602001808311610aa357829003601f168201915b505050505090509650965096509650965096509650919395979092949650565b8160008082815260200190815260200160002060010160009054906101000a900473ffffffffffffffffffffffffffffffffffffffff1673ffffffffffffffffffffffffffffffffffffffff163373ffffffffffffffffffffffffffffffffffffffff1614610b4e57600080fd5b82600160008060001b60008085815260200190815260200160002060000154141590508115610b95576000801b8314158015610b875750805b610b9057600080fd5b610ba1565b8015610ba057600080fd5b5b8460008088815260200190815260200160002060010160006101000a81548173ffffffffffffffffffffffffffffffffffffffff021916908373ffffffffffffffffffffffffffffffffffffffff1602179055506000808781526020019081526020016000206004018590806001815401808255809150509060018203906000526020600020016000909192909190916101000a81548173ffffffffffffffffffffffffffffffffffffffff021916908373ffffffffffffffffffffffffffffffffffffffff16021790555050600080878152602001908152602001600020600501429080600181540180825580915050906001820390600052602060002001600090919290919091505550505050505050565b828054600181600116156101000203166002900490600052602060002090601f016020900481019282601f10610cf657805160ff1916838001178555610d24565b82800160010185558215610d24579182015b82811115610d23578251825591602001919060010190610d08565b5b509050610d319190610dbf565b5090565b50805460018160011615610100020316600290046000825580601f10610d5b5750610d7a565b601f016020900490600052602060002090810190610d799190610dbf565b5b50565b5080546000825590600052602060002090810190610d9b9190610dbf565b50565b5080546000825590600052602060002090810190610dbc9190610dbf565b50565b610de191905b80821115610ddd576000816000905550600101610dc5565b5090565b9056fea265627a7a72315820ed1fb7db2b989afc4bc033f283e4a5cc42eab938e5b6a524b87089bff5e3a19664736f6c63430005100032",
  "source": "// SPDX-License-Identifier: GPL-\npragma solidity >=0.5.0 <0.9.0;\n contract ChainOfCustody {\nstruct Evidence {\n bytes32 ID;\n address owner ;\n address creator ;\n string description ;\n address [] taddr ;\n uint [] ttime ;\n string evidenceArray;\n }\n\n mapping ( bytes32 => Evidence ) private evidences ;\n\n modifier OnlyOwner ( bytes32 ID) {\n require (msg . sender == evidences [ID ]. owner ) ;\n _;\n}\n\n modifier OnlyCreator ( bytes32 ID) {\n require (msg . sender == evidences [ID ]. creator ) ;\n _;\n }\n\n modifier EvidenceExists ( bytes32 ID , bool mustExist ) \n  {\n bool exists = evidences [ID].ID != 0x0;\n if ( mustExist )\n require (ID != 0x0 && exists ) ;\n else\n require (! exists ) ;\n _;\n }\n  function CreateEvidence ( bytes32 ID , string memory description, string memory row)\n   public EvidenceExists (ID , false )\n   {  \n  evidences [ID ]. ID = ID; \n  evidences [ID ]. owner = msg. sender;  \n  evidences [ID ]. creator = msg. sender;  \n  evidences [ID ]. description = description;  \n  evidences [ID ]. taddr . push (msg. sender );  \n  evidences [ID ]. ttime . push (block.timestamp) ;\n  evidences [ID ]. evidenceArray = row ;\n   }\n\n  function Transfer ( bytes32 ID , address newowner )\n   public OnlyOwner (ID) EvidenceExists (ID , true ){ \n   evidences [ID ]. owner = newowner;  \n   evidences [ID ]. taddr . push ( newowner ) ; \n   evidences [ID ]. ttime . push (block.timestamp);\n }\nfunction RemoveEvidence ( bytes32 ID)\n public OnlyCreator (ID) EvidenceExists (ID , true ) {\n delete evidences [ID ];\n }\n\n function GetEvidence ( bytes32 ID)\nview public returns ( bytes32 , address , address ,\n string memory, address[] memory , uint [] memory, string memory) {\n return ( evidences [ID ].ID , evidences [ID ]. owner ,\n evidences [ID ]. creator , evidences [ID ]. description ,\nevidences [ID ]. taddr , evidences [ID ]. ttime,evidences [ID ]. evidenceArray ) ;\n }\n }\n",
  "sourcePath": "C:\\Users\\Arti\\Documents\\Blockchain\\prrofchain\\contracts\\ChainOfCustody.sol",
  "compiler": {
    "name": "solc",
    "version": "0.5.16+commit.9c3226ce.Emscripten.clang"
  },
  "schemaVersion": "3.4.16",
  "updatedAt": "2024-04-25T08:32:03.598Z",
  "networkType": "ethereum",
  "devdoc": {
    "methods": {}
  },
  "userdoc": {
    "methods": {}
  }
}